{
  "address": "0x5FbDB2315678afecb367f032d93F642f64180aa3",
  "abi": [
    {
      "inputs": [],
      "stateMutability": "nonpayable",
      "type": "constructor"
    },
    {
      "inputs": [
        {
          "internalType": "address",
          "name": "owner",
          "type": "address"
        }
      ],
      "name": "OwnableInvalidOwner",
      "type": "error"
    },
    {
      "inputs": [
        {
          "internalType": "address",
          "name": "account",
          "type": "address"
        }
      ],
      "name": "OwnableUnauthorizedAccount",
      "type": "error"
    },
    {
      "anonymous": false,
      "inputs": [
        {
          "indexed": true,
          "internalType": "address",
          "name": "previousOwner",
          "type": "address"
        },
        {
          "indexed": true,
          "internalType": "address",
          "name": "newOwner",
          "type": "address"
        }
      ],
      "name": "OwnershipTransferred",
      "type": "event"
    },
    {
      "anonymous": false,
      "inputs": [
        {
          "indexed": true,
          "internalType": "uint256",
          "name": "proposalId",
          "type": "uint256"
        },
        {
          "indexed": false,
          "internalType": "string",
          "name": "description",
          "type": "string"
        }
      ],
      "name": "ProposalCreated",
      "type": "event"
    },
    {
      "anonymous": false,
      "inputs": [
        {
          "indexed": true,
          "internalType": "uint256",
          "name": "proposalId",
          "type": "uint256"
        },
        {
          "indexed": true,
          "internalType": "address",
          "name": "voter",
          "type": "address"
        },
        {
          "indexed": false,
          "internalType": "bool",
          "name": "support",
          "type": "bool"
        }
      ],
      "name": "Voted",
      "type": "event"
    },
    {
      "inputs": [
        {
          "internalType": "string",
          "name": "description",
          "type": "string"
        }
      ],
      "name": "createProposal",
      "outputs": [
        {
          "internalType": "uint256",
          "name": "proposalId",
          "type": "uint256"
        }
      ],
      "stateMutability": "nonpayable",
      "type": "function"
    },
    {
      "inputs": [
        {
          "internalType": "uint256",
          "name": "proposalId",
          "type": "uint256"
        }
      ],
      "name": "finishProposal",
      "outputs": [],
      "stateMutability": "nonpayable",
      "type": "function"
    },
    {
      "inputs": [
        {
          "internalType": "uint256",
          "name": "proposalId",
          "type": "uint256"
        }
      ],
      "name": "getProposal",
      "outputs": [
        {
          "internalType": "string",
          "name": "description",
          "type": "string"
        },
        {
          "internalType": "uint256",
          "name": "yesVotes",
          "type": "uint256"
        },
        {
          "internalType": "uint256",
          "name": "noVotes",
          "type": "uint256"
        },
        {
          "internalType": "bool",
          "name": "active",
          "type": "bool"
        }
      ],
      "stateMutability": "view",
      "type": "function"
    },
    {
      "inputs": [],
      "name": "getProposalsCount",
      "outputs": [
        {
          "internalType": "uint256",
          "name": "",
          "type": "uint256"
        }
      ],
      "stateMutability": "view",
      "type": "function"
    },
    {
      "inputs": [
        {
          "internalType": "uint256",
          "name": "",
          "type": "uint256"
        },
        {
          "internalType": "address",
          "name": "",
          "type": "address"
        }
      ],
      "name": "hasVoted",
      "outputs": [
        {
          "internalType": "bool",
          "name": "",
          "type": "bool"
        }
      ],
      "stateMutability": "view",
      "type": "function"
    },
    {
      "inputs": [],
      "name": "owner",
      "outputs": [
        {
          "internalType": "address",
          "name": "",
          "type": "address"
        }
      ],
      "stateMutability": "view",
      "type": "function"
    },
    {
      "inputs": [
        {
          "internalType": "uint256",
          "name": "",
          "type": "uint256"
        }
      ],
      "name": "proposals",
      "outputs": [
        {
          "internalType": "string",
          "name": "description",
          "type": "string"
        },
        {
          "internalType": "uint256",
          "name": "yesVotes",
          "type": "uint256"
        },
        {
          "internalType": "uint256",
          "name": "noVotes",
          "type": "uint256"
        },
        {
          "internalType": "bool",
          "name": "active",
          "type": "bool"
        }
      ],
      "stateMutability": "view",
      "type": "function"
    },
    {
      "inputs": [],
      "name": "renounceOwnership",
      "outputs": [],
      "stateMutability": "nonpayable",
      "type": "function"
    },
    {
      "inputs": [
        {
          "internalType": "address",
          "name": "newOwner",
          "type": "address"
        }
      ],
      "name": "transferOwnership",
      "outputs": [],
      "stateMutability": "nonpayable",
      "type": "function"
    },
    {
      "inputs": [
        {
          "internalType": "uint256",
          "name": "proposalId",
          "type": "uint256"
        },
        {
          "internalType": "bool",
          "name": "support",
          "type": "bool"
        }
      ],
      "name": "vote",
      "outputs": [],
      "stateMutability": "nonpayable",
      "type": "function"
    }
  ],
  "transactionHash": "0x2a0785cf93277620723bba7e78f3022977939119149d12c38629b69ab5a1a707",
  "args": [],
  "numDeployments": 1,
  "solcInputHash": "711364b05935c31e835427380ead7c48",
  "bytecode": "0x608060405234801561001057600080fd5b50338061003757604051631e4fbdf760e01b81526000600482015260240160405180910390fd5b61004081610046565b50610096565b600080546001600160a01b038381166001600160a01b0319831681178455604051919092169283917f8be0079c531659141344cd1fd0a4f28419497f9722a3daafe3b4186f6b6457e09190a35050565b610ba7806100a56000396000f3fe608060405234801561001057600080fd5b506004361061009e5760003560e01c80638da5cb5b116100665780638da5cb5b1461014b57806398e527d314610166578063c7f758a81461016e578063c9d27afe14610181578063f2fde38b1461019457600080fd5b8063013cf08b146100a357806327393278146100cf57806343859632146100e457806349c2a1a614610122578063715018a614610143575b600080fd5b6100b66100b13660046107bf565b6101a7565b6040516100c694939291906107d8565b60405180910390f35b6100e26100dd3660046107bf565b610274565b005b6101126100f2366004610859565b600260209081526000928352604080842090915290825290205460ff1681565b60405190151581526020016100c6565b610135610130366004610885565b610340565b6040519081526020016100c6565b6100e2610444565b6000546040516001600160a01b0390911681526020016100c6565b600154610135565b6100b661017c3660046107bf565b610458565b6100e261018f3660046108f7565b610564565b6100e26101a236600461092c565b610704565b600181815481106101b757600080fd5b90600052602060002090600402016000915090508060000180546101da9061094e565b80601f01602080910402602001604051908101604052809291908181526020018280546102069061094e565b80156102535780601f1061022857610100808354040283529160200191610253565b820191906000526020600020905b81548152906001019060200180831161023657829003601f168201915b50505050600183015460028401546003909401549293909290915060ff1684565b61027c610742565b60015481106102a65760405162461bcd60e51b815260040161029d90610988565b60405180910390fd5b6000600182815481106102bb576102bb6109bf565b60009182526020909120600490910201600381015490915060ff166103325760405162461bcd60e51b815260206004820152602760248201527f566f74696e6753797374656d3a2070726f706f73616c20616c726561647920666044820152661a5b9a5cda195960ca1b606482015260840161029d565b600301805460ff1916905550565b60006001604051806080016040528085858080601f016020809104026020016040519081016040528093929190818152602001838380828437600092018290525093855250505060208083018290526040830182905260016060909301839052845492830185559381529290922081519192600402019081906103c39082610a3a565b506020820151600182810191909155604083015160028301556060909201516003909101805460ff191691151591909117905580546104029190610b10565b9050807f9c770c289ab5bf7e57cb1d23c8ceae993aea46eb64847072fd3d78ca60d3e4328484604051610436929190610b29565b60405180910390a292915050565b61044c610742565b610456600061076f565b565b6060600080600060018054905085106104835760405162461bcd60e51b815260040161029d90610988565b600060018681548110610498576104986109bf565b9060005260206000209060040201905080600001816001015482600201548360030160009054906101000a900460ff168380546104d49061094e565b80601f01602080910402602001604051908101604052809291908181526020018280546105009061094e565b801561054d5780601f106105225761010080835404028352916020019161054d565b820191906000526020600020905b81548152906001019060200180831161053057829003601f168201915b505050505093509450945094509450509193509193565b60015482106105855760405162461bcd60e51b815260040161029d90610988565b60006001838154811061059a5761059a6109bf565b60009182526020909120600490910201600381015490915060ff166106015760405162461bcd60e51b815260206004820152601e60248201527f566f74696e6753797374656d3a20766f74696e6720697320636c6f7365640000604482015260640161029d565b600083815260026020908152604080832033845290915290205460ff161561066b5760405162461bcd60e51b815260206004820152601b60248201527f566f74696e6753797374656d3a20616c726561647920766f7465640000000000604482015260640161029d565b811561068d5760018101805490600061068383610b58565b91905055506106a5565b60028101805490600061069f83610b58565b91905055505b60008381526002602090815260408083203380855290835292819020805460ff1916600117905551841515815285917ff2913dbe661ee2acc4a046d8fbcdc792373bda34c41c6086484b5345e5785e5f910160405180910390a3505050565b61070c610742565b6001600160a01b03811661073657604051631e4fbdf760e01b81526000600482015260240161029d565b61073f8161076f565b50565b6000546001600160a01b031633146104565760405163118cdaa760e01b815233600482015260240161029d565b600080546001600160a01b038381166001600160a01b0319831681178455604051919092169283917f8be0079c531659141344cd1fd0a4f28419497f9722a3daafe3b4186f6b6457e09190a35050565b6000602082840312156107d157600080fd5b5035919050565b608081526000855180608084015260005b8181101561080657602081890181015160a08684010152016107e9565b50600060a0828501015260a0601f19601f830116840101915050846020830152836040830152821515606083015295945050505050565b80356001600160a01b038116811461085457600080fd5b919050565b6000806040838503121561086c57600080fd5b8235915061087c6020840161083d565b90509250929050565b6000806020838503121561089857600080fd5b823567ffffffffffffffff808211156108b057600080fd5b818501915085601f8301126108c457600080fd5b8135818111156108d357600080fd5b8660208285010111156108e557600080fd5b60209290920196919550909350505050565b6000806040838503121561090a57600080fd5b823591506020830135801515811461092157600080fd5b809150509250929050565b60006020828403121561093e57600080fd5b6109478261083d565b9392505050565b600181811c9082168061096257607f821691505b60208210810361098257634e487b7160e01b600052602260045260246000fd5b50919050565b6020808252601e908201527f566f74696e6753797374656d3a20696e76616c69642070726f706f73616c0000604082015260600190565b634e487b7160e01b600052603260045260246000fd5b634e487b7160e01b600052604160045260246000fd5b601f821115610a3557600081815260208120601f850160051c81016020861015610a125750805b601f850160051c820191505b81811015610a3157828155600101610a1e565b5050505b505050565b815167ffffffffffffffff811115610a5457610a546109d5565b610a6881610a62845461094e565b846109eb565b602080601f831160018114610a9d5760008415610a855750858301515b600019600386901b1c1916600185901b178555610a31565b600085815260208120601f198616915b82811015610acc57888601518255948401946001909101908401610aad565b5085821015610aea5787850151600019600388901b60f8161c191681555b5050505050600190811b01905550565b634e487b7160e01b600052601160045260246000fd5b81810381811115610b2357610b23610afa565b92915050565b60208152816020820152818360408301376000818301604090810191909152601f909201601f19160101919050565b600060018201610b6a57610b6a610afa565b506001019056fea26469706673582212205cc7249f879cad309ab4a25fa95ae5418a6ba8bca222bcb9b4b784ce5562e5b964736f6c63430008140033",
  "devdoc": {
    "errors": {
      "OwnableInvalidOwner(address)": [
        {
          "details": "The owner is not a valid owner account. (eg. `address(0)`)"
        }
      ],
      "OwnableUnauthorizedAccount(address)": [
        {
          "details": "The caller account is not authorized to perform an operation."
        }
      ]
    },
    "kind": "dev",
    "methods": {
      "constructor": {
        "details": "Initializes the contract and sets the deployer as the owner. `Ownable` in OpenZeppelin v5 requires an initial owner address."
      },
      "createProposal(string)": {
        "params": {
          "description": "A short description of what is being voted on."
        },
        "returns": {
          "proposalId": "The ID of the newly created proposal."
        }
      },
      "finishProposal(uint256)": {
        "params": {
          "proposalId": "The ID of the proposal to finish."
        }
      },
      "getProposal(uint256)": {
        "params": {
          "proposalId": "The ID of the proposal to view."
        }
      },
      "owner()": {
        "details": "Returns the address of the current owner."
      },
      "renounceOwnership()": {
        "details": "Leaves the contract without owner. It will not be possible to call `onlyOwner` functions. Can only be called by the current owner. NOTE: Renouncing ownership will leave the contract without an owner, thereby disabling any functionality that is only available to the owner."
      },
      "transferOwnership(address)": {
        "details": "Transfers ownership of the contract to a new account (`newOwner`). Can only be called by the current owner."
      },
      "vote(uint256,bool)": {
        "params": {
          "proposalId": "The ID of the proposal to vote on.",
          "support": "True for a 'yes' vote, false for a 'no' vote."
        }
      }
    },
    "title": "VotingSystem",
    "version": 1
  },
  "userdoc": {
    "events": {
      "ProposalCreated(uint256,string)": {
        "notice": "Emitted when a new proposal is created."
      },
      "Voted(uint256,address,bool)": {
        "notice": "Emitted when a vote is cast."
      }
    },
    "kind": "user",
    "methods": {
      "createProposal(string)": {
        "notice": "Creates a new proposal. Anyone can call this function. Previously this function was restricted to the contract owner via the `onlyOwner` modifier, but in a decentralized voting system it makes more sense to allow any participant to propose ideas. The function pushes a new active proposal into the array and emits a `ProposalCreated` event. The returned ID corresponds to the index of the newly added proposal in the `proposals` array."
      },
      "finishProposal(uint256)": {
        "notice": "Finishes a proposal, preventing any further votes. Only owner can finish."
      },
      "getProposal(uint256)": {
        "notice": "Returns details of a proposal."
      },
      "getProposalsCount()": {
        "notice": "Returns the total number of proposals created."
      },
      "hasVoted(uint256,address)": {
        "notice": "Tracks whether an address has voted on a specific proposal. mapping[proposalId][voter] => true/false"
      },
      "proposals(uint256)": {
        "notice": "Array of proposals. The index of each element is its ID."
      },
      "vote(uint256,bool)": {
        "notice": "Casts a vote on a given proposal. Each address can vote once per proposal."
      }
    },
    "notice": "A simple decentralized voting system. The owner (deployer) can create proposals, and anyone can vote once per proposal. Votes are tallied as yes/no counts. The owner can finish a proposal to prevent further voting.",
    "version": 1
  },
  "storageLayout": {
    "storage": [
      {
        "astId": 8,
        "contract": "contracts/VotingSystem.sol:VotingSystem",
        "label": "_owner",
        "offset": 0,
        "slot": "0",
        "type": "t_address"
      },
      {
        "astId": 3664,
        "contract": "contracts/VotingSystem.sol:VotingSystem",
        "label": "proposals",
        "offset": 0,
        "slot": "1",
        "type": "t_array(t_struct(Proposal)3659_storage)dyn_storage"
      },
      {
        "astId": 3671,
        "contract": "contracts/VotingSystem.sol:VotingSystem",
        "label": "hasVoted",
        "offset": 0,
        "slot": "2",
        "type": "t_mapping(t_uint256,t_mapping(t_address,t_bool))"
      }
    ],
    "types": {
      "t_address": {
        "encoding": "inplace",
        "label": "address",
        "numberOfBytes": "20"
      },
      "t_array(t_struct(Proposal)3659_storage)dyn_storage": {
        "base": "t_struct(Proposal)3659_storage",
        "encoding": "dynamic_array",
        "label": "struct VotingSystem.Proposal[]",
        "numberOfBytes": "32"
      },
      "t_bool": {
        "encoding": "inplace",
        "label": "bool",
        "numberOfBytes": "1"
      },
      "t_mapping(t_address,t_bool)": {
        "encoding": "mapping",
        "key": "t_address",
        "label": "mapping(address => bool)",
        "numberOfBytes": "32",
        "value": "t_bool"
      },
      "t_mapping(t_uint256,t_mapping(t_address,t_bool))": {
        "encoding": "mapping",
        "key": "t_uint256",
        "label": "mapping(uint256 => mapping(address => bool))",
        "numberOfBytes": "32",
        "value": "t_mapping(t_address,t_bool)"
      },
      "t_string_storage": {
        "encoding": "bytes",
        "label": "string",
        "numberOfBytes": "32"
      },
      "t_struct(Proposal)3659_storage": {
        "encoding": "inplace",
        "label": "struct VotingSystem.Proposal",
        "members": [
          {
            "astId": 3652,
            "contract": "contracts/VotingSystem.sol:VotingSystem",
            "label": "description",
            "offset": 0,
            "slot": "0",
            "type": "t_string_storage"
          },
          {
            "astId": 3654,
            "contract": "contracts/VotingSystem.sol:VotingSystem",
            "label": "yesVotes",
            "offset": 0,
            "slot": "1",
            "type": "t_uint256"
          },
          {
            "astId": 3656,
            "contract": "contracts/VotingSystem.sol:VotingSystem",
            "label": "noVotes",
            "offset": 0,
            "slot": "2",
            "type": "t_uint256"
          },
          {
            "astId": 3658,
            "contract": "contracts/VotingSystem.sol:VotingSystem",
            "label": "active",
            "offset": 0,
            "slot": "3",
            "type": "t_bool"
          }
        ],
        "numberOfBytes": "128"
      },
      "t_uint256": {
        "encoding": "inplace",
        "label": "uint256",
        "numberOfBytes": "32"
      }
    }
  }
}